:020000040000FA
:100000000C945F000C9487000C9487000C9487007C
:100010000C9487000C9487000C9487000C94B9060C
:100020000C9487000C9487000C9487000C94870034
:100030000C9487000C9487000C9487000C94870024
:100040000C946D070C9487000C943B070C941507D7
:100050000C9487000C9487000C9487000C94870004
:100060000C9487000C9487000200000000240027F5
:10007000002A00000000080002010000030407003D
:100080000000000000000001020408102040800170
:1000900002040810200102040810200000000025BE
:1000A0000028002B000404040404040404020202D7
:1000B00002020203030303030300B707ED16112432
:1000C0001FBECFEFD8E0DEBFCDBF11E0A0E0B1E0B2
:1000D000E6E5F1E302C005900D92AC35B107D9F722
:1000E00022E0ACE5B1E001C01D92A43FB207E1F708
:1000F00010E0CEE5D0E004C02197FE010E946C170D
:10010000CD35D107C9F70E9456080C949E180C945F
:100110000000AF92BF92CF92DF92EF92FF920F93C7
:100120001F93CF93DF936C017B018B01040F151F8D
:10013000EB015E01AE18BF08C017D10759F06991F5
:10014000D601ED91FC910190F081E02DC601099559
:10015000892B79F7C501DF91CF911F910F91FF9006
:10016000EF90DF90CF90BF90AF900895FC01538D3A
:10017000448D252F30E0842F90E0821B930B541781
:1001800010F0CF96089501970895FC01918D828D0E
:10019000981761F0A28DAE0FBF2FB11D5D968C91A7
:1001A000928D9F5F9F73928F90E008958FEF9FEFE6
:1001B0000895FC01918D828D981731F0828DE80FA2
:1001C000F11D858D90E008958FEF9FEF0895FC015C
:1001D000918D228D892F90E0805C9F4F821B910929
:1001E0008F73992708958EE392E00E94E70021E043
:1001F000892B09F420E0822F089580E090E0892B7C
:1002000029F00E94F30081110C9400000895FC0174
:10021000A48DA80FB92FB11DA35ABF4F2C91848D67
:1002200090E001968F739927848FA689B7892C93C4
:10023000A089B1898C91837080648C93938D848D17
:10024000981306C00288F389E02D80818F7D80831A
:100250000895EF92FF920F931F93CF93DF93EC01DA
:1002600081E0888F9B8D8C8D98131AC0E889F9895D
:10027000808185FF15C09FB7F894EE89FF89608360
:10028000E889F98980818370806480839FBF81E0E1
:1002900090E0DF91CF911F910F91FF90EF90089523
:1002A000F62E0B8D10E00F5F1F4F0F731127E02EFE
:1002B0008C8D8E110CC00FB607FCFACFE889F98936
:1002C000808185FFF5CFCE010E940701F1CFEB8D34
:1002D000EC0FFD2FF11DE35AFF4FF0829FB7F8940A
:1002E0000B8FEA89FB8980818062CFCFCF93DF9328
:1002F000EC01888D8823B9F0AA89BB89E889F9893E
:100300008C9185FD03C0808186FD0DC00FB607FC72
:10031000F7CF8C9185FFF2CF808185FFEDCFCE01A5
:100320000E940701E9CFDF91CF91089590E0FC0191
:10033000ED58FF4F2491FC01E957FF4F3491FC0128
:10034000EB55FF4FE491EE23C9F0222339F023301F
:1003500001F1A8F4213019F1223029F1F0E0EE0F7B
:10036000FF1FE556FF4FA591B4918FB7F894EC911C
:10037000611126C030953E233C938FBF08952730EE
:10038000A9F02830C9F0243049F7809180008F7D92
:1003900003C0809180008F7780938000DFCF84B589
:1003A0008F7784BDDBCF84B58F7DFBCF8091B0008C
:1003B0008F778093B000D2CF8091B0008F7DF9CF3E
:1003C0003E2BDACF9091000189130BC0E8E6F0E0F4
:1003D000E4919FEF90930001E13049F028F0E23082
:1003E00061F060E00C94960110926E00FACF90914B
:1003F0006F009D7F90936F00F4CF909170009D7F70
:100400009093700091E09093B0009091B100987F2C
:1004100094609093B1001092B300E3CFCF93DF9339
:1004200090E0FC01E957FF4F24918B559F4FFC0151
:1004300084918823D1F090E0880F991FFC01E7593F
:10044000FF4FA591B491FC01E556FF4FC591D491A2
:1004500061110EC09FB7F8948C91E22FE0958E2326
:100460008C932881E223E8839FBFDF91CF91089589
:100470008FB7F894EC91E22BEC938FBFF6CF4F92AD
:100480005F926F927F928F929F92AF92BF92CF9224
:10049000DF92EF92FF920F931F93CF93DF9300D0E1
:1004A00000D01F92CDB7DEB78B0129013A019091A0
:1004B00000018917C9F09F3F09F47EC00F900F908B
:1004C0000F900F900F90DF91CF911F910F91FF90A0
:1004D000EF90DF90CF90BF90AF909F908F907F90E4
:1004E0006F905F904F900895E8E6F0E094919D83BF
:1004F00097FDE4CF61E00E940E028D81882321F0F8
:100500009D81923009F04AC14801B12CA12C60E0D4
:1005100072E18AE790E0A50198010E9411172983F2
:100520003A834B835C8369017A0181E0C81AD10860
:10053000E108F1089FEFC916D104E104F10409F0C4
:100540000CF401C160E472E48FE090E0A501980131
:100550000E94111769017A0181E0C81AD108E108E7
:10056000F1089D81923009F0A2C08FEFC816D10426
:10057000E104F10409F00CF4E6C160E970ED83E0F8
:1005800090E0A50198010E94111769017A0191E09C
:10059000C91AD108E108F1088FEFC816D104E104A7
:1005A000F10411F00CF07FC183E09091B100987FCD
:1005B000892B8093B100CFC080930001E8E6F0E082
:1005C00094919D839F3F09F479CF913041F150F090
:1005D000923009F446C09D8197FD70CF61E00E9482
:1005E0000E028ECF14BC15BC94B5926094BD95B527
:1005F000916095BD282F30E0F901EB55FF4FE49154
:10060000F0E0EE0FFF1FE556FF4F45915491F901C1
:10061000E957FF4FE491E0936C011D826BCF10927C
:1006200080001092810090918100986090938100E9
:1006300090918100916090938100282F30E0F90122
:10064000EB55FF4FE491F0E0EE0FFF1FE556FF4F33
:1006500045915491F901E957FF4FE491E0936B0103
:1006600049CF1092B0001092B1009091B00092600A
:100670009093B0009091B10091609093B100282FB9
:1006800030E0F901EB55FF4FE491F0E0EE0FFF1F72
:10069000E556FF4F45915491509376014093750173
:1006A000F901E957FF4FE491E093770123CF9FEFE2
:1006B000C916D104E104F10409F00CF46DC068E43A
:1006C00078EE81E090E0A50198010E941117690180
:1006D0007A0181E0C81AD108E108F1089D819923C7
:1006E00009F4FAC08FEFC816D104E104F10411F047
:1006F0000CF0FBC0EFC064E274EF80E090E0A50175
:1007000094010E94111769017A0181E0C81AD10889
:10071000E108F10885E09FEFC916D104E104F10476
:1007200009F008F442CF62E17AE780E090E0A501A9
:1007300094010E94111769017A0181E0C81AD10859
:10074000E108F108E5C081E09D8191112ECF95B5BA
:10075000987F892B85BD2FEF3FEFA90141145104EC
:100760006104710409F043C09D81913009F45EC0B9
:10077000923009F46DC09111A1CEC7BC20937101D4
:1007800030937201409373015093740180916E0015
:10079000826080936E0092CE82E0D6CFB12CA12CE5
:1007A00060E072E18AE790E0A50198010E941117CC
:1007B00069017A0181E0C81AD108E108F108C11481
:1007C000D10491E0E906F10404F591E08D818130D6
:1007D00011F680918100887F892B809381002FEF13
:1007E0003FEFA9014114510461047104F9F0D801EB
:1007F000AA0FBB1FA30192010E94301728EE33E01D
:1008000040E050E00E943B17AFCF68E478EE81E013
:1008100090E0A50198010E94111769017A0181E019
:10082000C81AD108E108F10893E0D0CFD09289002E
:10083000C092880020936D0130936E0140936F0148
:100840005093700180916F00826080936F0036CE6C
:10085000C092B300209378013093790140937A01DC
:1008600050937B018091700082608093700026CE4F
:1008700084E09FEFC916D104E104F10409F008F403
:1008800066CFC980DA80EB80FC808AE0F594E7943B
:10089000D794C7948A95D1F781E0C81AD108E108A6
:1008A000F10885E054CF68E478EE81E090E0A5019E
:1008B00098010E94111769017A0181E0C81AD108D4
:1008C000E108F1089FEFC916D104E104F10411F029
:1008D0000CF011CF84E069CE83E09FEFC916D104FC
:1008E000E104F10409F00CF432CF62E17AE780E030
:1008F00090E0A50194010E94111769017A0181E03D
:10090000C81AD108E108F1089D81992309F4B0CFF4
:1009100086E09FEFC916D104E104F10409F008F460
:1009200044CEC980DA80EB80FC809AE0F594E794AD
:10093000D794C7949A95D1F781E0C81AD108E108F5
:10094000F10887E032CE82E030CE8E3008F08E5053
:100950008770806480937C0080917A0080648093AB
:100960007A0080917A0086FDFCCF8091780090918A
:10097000790008953FB7F8948091670190916801DC
:10098000A0916901B0916A0126B5A89B05C02F3FCF
:1009900019F00196A11DB11D3FBFBA2FA92F982FA5
:1009A0008827BC01CD01620F711D811D911D42E0A0
:1009B000660F771F881F991F4A95D1F708952FB7A3
:1009C000F894609163017091640180916501909148
:1009D00066012FBF0895EEE5F1E08083918342E048
:1009E00050E0BF018EE392E00C948900682F8EE303
:1009F00092E00C942901E2E2F1E09EE023E18081A3
:100A00008E3039F42083319681E0E832F807B9F767
:100A100008958331C1F79083F6CFCF93DF93C82F2A
:100A2000D0E0FE01E15DFE4F60E080810E94960112
:100A3000CC0FDD1FCC0FDD1FCB5EDD4F188219827E
:100A40001A821B82DF91CF9108950F931F93CF934A
:100A5000DF93C82FD0E0FE01E15DFE4F61E08081B1
:100A60000E949601FE01EE0FFF1FE957FE4F008125
:100A700011810F3F100781F00E94DF04CC0FDD1FB2
:100A8000CC0FDD1FCB5EDD4F600F711F811D911DEF
:100A9000688379838A839B83DF91CF911F910F9124
:100AA0000895EF92FF920F931F93CF93DF9360E02F
:100AB00088E00E949601CBE3DFE1CE010197F1F7D8
:100AC00061E088E00E9496012197F1F781E090E0D3
:100AD00090935D0180935C010BE91FE09BE3E92E9D
:100AE0009FE1F92EC0915C01D0915D01CF3F87E07D
:100AF000D807F8F460E088E00E94960180918501B3
:100B0000909186018C239D23892B89F0C701019741
:100B1000F1F761E088E00E949601C8010197F1F7C2
:100B2000CC0FDD1FD0935D01C0935C01DBCFC8010A
:100B3000EECF61E088E0DF91CF911F910F91FF90A0
:100B4000EF900C9496010F931F93CF93DF9360E087
:100B500088E00E94960161E084E00E949601C091C5
:100B60000501D0910601CF3FDC07E1F00E94DF04D0
:100B70008B019C010C0F1D1F211D311D00932102B3
:100B80001093220220932302309324026C507E4F54
:100B90008F4F9F4F60931D0270931E0280931F0220
:100BA000909320021092390210923802C0913802BC
:100BB000D0913902C230D1057CF4FE01E955FE4FD7
:100BC0008081853019F48C2F0E9425052196D093C1
:100BD0003902C0933802EACFDF91CF911F910F9174
:100BE00008958EBD00000DB407FEFDCF8EB50895AB
:100BF00060E08AE00E94960180E20E94F10561E0D7
:100C00008AE00C9496010F931F93CF93DF9360E0DB
:100C10008AE00E94960180E60E94F10580E00E9431
:100C2000F105C82FD0E0D0938101C093800180E00E
:100C30000E94F105082F10E010937F0100937E01C0
:100C400061E08AE00E9496019C2F8827802B912BDF
:100C5000DF91CF911F910F910895FC010190002029
:100C6000E9F73197AF01481B590BBC018EE392E0C5
:100C70000C9489008F929F92AF92BF920F931F9313
:100C8000CF93DF93CDB7DEB7A1970FB6F894DEBF51
:100C90000FBECDBF19A2423008F44AE08E010F5DAD
:100CA0001F4F842E912CB12CA12CA50194010E94E0
:100CB0003B17E62FB901CA01EA30F4F4E05DD80130
:100CC000EE938D01232B242B252B79F790E080E0E8
:100CD000109719F0CD010E942D06A1960FB6F89439
:100CE000DEBF0FBECDBFDF91CF911F910F91BF909F
:100CF000AF909F908F900895E95CE1CFCF92DF9203
:100D0000EF92FF92CF93DF936B017C016DE28EE354
:100D100092E00E942901EC0166277727CB016C192C
:100D20007D098E099F094AE00E943A068C0F9D1F9B
:100D3000DF91CF91FF90EF90DF90CF900895CF9308
:100D4000DF93BC01990F880B990B97FF0CC00E9491
:100D50007E06EC0185E491E00E942D068C0F9D1F1C
:100D6000DF91CF9108954AE00E943A06F2CF0C94A9
:100D7000FB161F920F920FB60F9211242F933F93E1
:100D80004F935F936F937F938F939F93AF93BF9393
:100D9000EF93FF938091780190917901A0917A016E
:100DA000B0917B01892B8A2B8B2BD1F1909177010C
:100DB000E0917501F091760180818927808380918F
:100DC000780190917901A0917A01B0917B01181678
:100DD00019061A061B069CF48091780190917901FE
:100DE000A0917A01B0917B010197A109B10980938B
:100DF000780190937901A0937A01B0937B01FF91E0
:100E0000EF91BF91AF919F918F917F916F915F9182
:100E10004F913F912F910F900FBE0F901F901895FB
:100E2000809100010E94E201EACF1F920F920FB65B
:100E30000F9211242F933F934F935F936F937F9360
:100E40008F939F93AF93BF93EF93FF938EE392E0C3
:100E50000E940701FF91EF91BF91AF919F918F91F8
:100E60007F916F915F914F913F912F910F900FBEA6
:100E70000F901F9018951F920F920FB60F9211248A
:100E80002F938F939F93EF93FF93E0914E02F091F6
:100E90004F028081E0915402F091550282FD1BC007
:100EA0009081809157028F5F8F7320915802821733
:100EB00041F0E0915702F0E0E25CFD4F958F8093A6
:100EC0005702FF91EF919F918F912F910F900FBE3D
:100ED0000F901F9018958081F4CF1F920F920FB63C
:100EE0000F9211242F933F938F939F93AF93BF93B0
:100EF0008091630190916401A0916501B0916601B8
:100F00003091620123E0230F2D3758F50196A11D82
:100F1000B11D209362018093630190936401A093BB
:100F20006501B09366018091670190916801A0917D
:100F30006901B0916A010196A11DB11D80936701FD
:100F400090936801A0936901B0936A01BF91AF913A
:100F50009F918F913F912F910F900FBE0F901F90F7
:100F6000189526E8230F0296A11DB11DD2CF10922D
:100F700041021092400288EE93E0A0E0B0E080933E
:100F8000420290934302A0934402B093450287E348
:100F900091E090933F0280933E0285EC90E0909325
:100FA0004B0280934A0284EC90E090934D02809330
:100FB0004C0280EC90E090934F0280934E0281ECC3
:100FC00090E0909351028093500282EC90E09093D5
:100FD00053028093520286EC90E0909355028093E6
:100FE0005402109257021092580210925902109215
:100FF0005A021092DC021092E2021092E902109260
:10100000EA021092EB021092EC0281E08093E80277
:101010008093E5021092E60292E09093E7028093BB
:10102000DB0289E090E09093E0028093DF020E946F
:1010300072179093E4028093E302009771F129E024
:10104000FC0111922A95E9F783E090E09093DE028B
:101050008093DD0286E08093E1028091DC028823A8
:1010600041F061E086E00E940E0260E086E00E94AE
:101070009601EBEAF0E0E491F0E0EE0FFF1FE55699
:10108000FF4F859194919093EE028093ED02EDE8ED
:10109000F0E0E491E093EF0208951092E0021092E4
:1010A000DF021092DE021092DD02D4CFCF93DF93E5
:1010B000CDB7DEB729970FB6F894DEBF0FBECDBF10
:1010C000789484B5826084BD84B5816084BD85B523
:1010D000826085BD85B5816085BD80916E0081602F
:1010E00080936E00109281008091810082608093D5
:1010F00081008091810081608093810080918000D7
:101100008160809380008091B10084608093B10001
:101110008091B00081608093B00080917A008460FB
:1011200080937A0080917A00826080937A00809127
:101130007A00816080937A0080917A008068809341
:101140007A001092C10061E088E00E940E0261E026
:1011500088E00E94960161E087E00E940E0261E053
:1011600087E00E94960161E089E00E940E0260E043
:1011700089E00E94960161E083E00E940E0260E037
:1011800083E00E94960161E086E00E940E0261E029
:1011900086E00E94960161E085E00E940E0260E018
:1011A00085E00E94960161E084E00E940E0260E00A
:1011B00084E00E9496012FB72F83F89480917C01E0
:1011C000811127C0EFEAF0E08491E1E9F0E0949129
:1011D000E82FF0E0EE0FFF1FE759FF4FA591B49104
:1011E000EC91E92321F461E08AE00E94960161E03C
:1011F0008AE00E940E028CB580618CBD8CB5806443
:101200008CBD61E08DE00E940E0261E08BE00E94E7
:101210000E0280917C018F5F80937C013F813FBFF4
:1012200083E58CBD1DBC61E08AE00E940E0261E096
:101230008AE00E94960160E08AE00E94960189E8B7
:101240000E94F10583E40E94F10580E90E94F10506
:1012500082E00E94F10561E08AE00E9496010E940E
:10126000F805E9EAF1E0ADEBB1E028E833E184E12B
:1012700090E041E0ED3BF40729F0219331938D9309
:101280009D93F7CF88EE93E09093AA018093A901F4
:101290008CE494E09093AC018093AB0180EA9FE0F2
:1012A0009093AE018093AD0185E090E0909388012A
:1012B0008093870190938A018093890182E090E076
:1012C0009093390280933802E0914E02F0914F02E0
:1012D0008083E0914A02F0914B021082E0914C022F
:1012E000F0914D0280E1808310925602E09152020B
:1012F000F091530286E08083E0915002F091510218
:10130000808180618083E0915002F0915102808160
:1013100088608083E0915002F09151028081806862
:101320008083E0915002F091510280818F7D808313
:1013300088E491E00E942D0685E491E00E942D064C
:1013400076E0E72EF12CCC24CA94D12C11E08EE368
:1013500092E00E94E700892B09F4E6C08EE392E058
:101360000E94C5009C019093A00180939F01E09191
:101370009801E111DEC5FC01B197EE3BF10508F0E3
:10138000C6C0EB53F64F0C946C17B90D190E0D0E29
:101390002C0E200E3F0E330E520E460E650E590EC9
:1013A000D20DF30D6C0E7C0EB60E850F8F0FD20E84
:1013B000BD0ECB0EDE0EE20EF00EF70E700E8F0E8F
:1013C000830E9A0E960EA30E9F0E830AAE0E1A0B74
:1013D000FB0E080F870A870A870A870A7B0F870A8E
:1013E000870A0C0F1A0F240F300F380F420F4C0FC3
:1013F000870A870A870AD20ED80E870AA90E870A9B
:10140000870A870A870A870A870A870A870A870A54
:10141000870A580F5F0F770F870A870A870A870A9C
:10142000870A870AEE0AF80A240BF30A870A870A52
:10143000870A870A870A870A180C0A0C360C260CBA
:101440005A0C460C870A870A870A870A610BC00B69
:10145000B00B7A0B650BCB0BC70B030CF70B5A0BBE
:101460005E0B870A870A870A870A870A870A870A1C
:10147000870A870A9A0D8B0D870A870A870A870AC7
:10148000870A870A870A870A6E0C710C960C8A0CE9
:10149000870A870A870A870A870A870AB40DB00D68
:1014A000870A870A870A870A870A870A870A870AB4
:1014B0009D0CA10CA90CA50CC00CAF0CDD0CCC0C28
:1014C000ED0CE90CFA0CF60C140D030D200D870A37
:1014D000870A870A870A870A240D280D310D2D0DEA
:1014E000480D370D580D540D650D610D7F0D6E0DB6
:1014F000870A870A870A870A870A870A870A870A64
:10150000A10DA50DA90D8FE690E00E949F06809188
:10151000980181110C9496131092940110929501E8
:1015200010929601109297018090940190909501ED
:10153000A0909601B090970181149104A104B10488
:10154000B1F00E94DF0486169706A806B90678F463
:10155000E8E9F1E086E0DF011D928A95E9F7109253
:1015600094011092950110929601109297010E9499
:10157000BA0460933A0270933B0280933C029093CA
:101580003D021092390210923802E0913802F09137
:101590003902F987E887809128018E171F0609F024
:1015A00014F40C94AA13EE5DFE4F8081A884B984D4
:1015B000AA0CBB1C8F3F11F00C94A6130E940306CB
:1015C000F501E45DFD4F91838083288539852F5F88
:1015D0003F4F3093390220933802D7CF80EF90E00D
:1015E0000E94EB0494CF82ED90E00E94EB048FCF39
:1015F00090E080E00E94B706A82FB0E0B987A887E6
:10160000B0938101A093800181E090E00E94B70631
:1016100090E090937F0180937E01E885F985FE2F0D
:10162000EE278E0F9F1F9093E6018093E5010E94A5
:101630009F066DCF82E0809398018093990110926C
:1016400092011092910163CF81E10E94A5048093E1
:10165000E5019093E6018887998788859985805967
:10166000914080359105B8F483E1809309018EE0C3
:1016700080930D010E94FB0410937D012BE430E068
:1016800039872887888599859093E6018093E501BD
:101690000E94EB043CCF80917D01882399F38EE07A
:1016A0008093090183E180930D010E94FB04109255
:1016B0007D01E8CF84E08093980129CF0E94F8054E
:1016C00026CF85E08093980122CF46E050E066E087
:1016D00070E088E991E00E94971846E050E06AE0E7
:1016E00070E08EE091E00E949718109290011092A5
:1016F00028010DCF1092390210923802A0913802C1
:10170000B0913902B987A887A630B1050CF0FFCE99
:10171000FD01EE5DFE4F408186E04F3FB9F0E9E00C
:10172000F1E030E020E080E090E051912F5F3F4F0A
:10173000451301C0C90125303105B9F78093E50192
:101740009093E60130938F0120938E010E94F6045E
:10175000E885F9853196F0933902E0933802CECFCF
:1017600087E0809398018093990110921E01109256
:101770001F01109220011092210110929301C7CEF7
:1017800080911E0190911F010E94EB04C0CE88E061
:1017900080939801BCCEE0918D01F0E0EE5DFE4FAC
:1017A00000810F3F21F486E00E94F604B0CE109233
:1017B000390210923802209138023091390239876B
:1017C0002887253031050CF0A2CEF901E75FFE4FE6
:1017D0008081081304C0822F8F5F0E94F6048885E1
:1017E000998501969093390280933802E4CF89E07D
:1017F000809398018093990110920801109207013B
:101800001092930184CE80910701909108010E946B
:10181000EB047DCE109398011093990182E08093A0
:101820009A011092920110929101109293016FCE41
:10183000109398011093990183E080939A0110927C
:101840009201109291011092930161CE1093980130
:101850001093990182E080939A0180939B011092EA
:101860009201109291011092930151CE1093980120
:101870001093990183E080939A0180939B011092C9
:101880009201109291011092930141CE1093980110
:101890001093990182E080939A0180939B01809339
:1018A0009C0180939D0110929201109291011092DF
:1018B00093012DCE109398011093990183E08093AA
:1018C0009A0180939B0180939C0180939D011092CB
:1018D0009201109291011092930119CE0E94A305DA
:1018E00016CE61E088E00E949601109221021092CB
:1018F0002202109223021092240260E084E00E94EF
:10190000960110921D0210921E0210921F02109258
:101910002002FDCD8AE08093980180939901109276
:1019200006011092050110929301F1CD80910501FD
:10193000909106010E94EB04EACD81E18093980129
:10194000E6CD89E00E94E201E2CD8BE08093980130
:10195000DECD80918C018F5F0E94F604D8CD8CE0A3
:101960008093980180939901E0918C01F0E0EE0F53
:10197000FF1FE755FE4F1182108210929301C7CDD1
:10198000E0918C01F0E0EE0FFF1FE755FE4F8081E4
:1019900091810E94EB04BBCD8DE0809398018093F0
:1019A0009901E0918C01F0E0EE0FFF1FE354FE4F30
:1019B0001182108210929301AACDE0918C01F0E087
:1019C000EE0FFF1FE354FE4F808191810E94EB04D4
:1019D0009ECD8EE0809398019ACDE0918C01F0E04D
:1019E000EF50FE4F80810E94F60491CD8FE08093EE
:1019F00098018DCDE0918C01F0E0E951FE4F80819E
:101A00000E94F60484CD80E180939801809399012F
:101A1000E0918C01F0E0EE0FFF1FEF52FE4F1182BC
:101A200010821092930173CDE0918C01F0E0EE0FE3
:101A3000FF1FEF52FE4F808191810E94EB0467CD22
:101A40008AE00E94F60463CD82E1809398015FCD25
:101A500080918B010E940D055ACD83E180939801FE
:101A600056CD80918B018F5F0E94F60450CD84E1AA
:101A70008093980180939901E0918B01F0E0EE0F43
:101A8000FF1FE957FE4F11821082109293013FCD44
:101A9000E0918B01F0E0EE0FFF1FE957FE4F8081D0
:101AA00091810E94EB0433CD85E1809398012FCD85
:101AB000E0918B01F0E0E955FE4F80810E94F60431
:101AC00026CD86E18093980122CDE0918B01F0E054
:101AD000EB55FE4F80810E94F60419CD87E180937B
:101AE000980180939901E0918B01F0E0EE0FFF1FC8
:101AF000EF55FE4F118210821092930108CDE091B4
:101B00008B01F0E0EE0FFF1FEF55FE4F80819181BA
:101B10000E94EB04FCCC88E18093980180939901AA
:101B200089E180939A0110928601109285011092AA
:101B30009301EDCC80918501909186010E94EB0488
:101B4000E6CC80E00E94F604E2CC8BE18093980121
:101B5000DECC8DE1809398018CE180939901D7CC04
:101B60008AE180939801D3CC809183010E94F6048E
:101B7000CECC61E080E10E940E0260E080E10E9434
:101B8000960161E083E10E940E0260E083E10E9421
:101B9000960161E08FE00E940E0260E08FE00E94FB
:101BA0009601B5CC0E94DF0460930D0270930E0283
:101BB00080930F0290931002209101013091020155
:101BC000620F731F811D911D6093110270931202A9
:101BD0008093130290931402A1E0B0E0B0930C0242
:101BE000A0930B0294CCE0918201F0E0EF5CFE4FF9
:101BF00060E080810E94960110920D0210920E0208
:101C000010920F0210921002109211021092120202
:101C100010921302109214027ACC8AE280939801F7
:101C20008093990110920201109201011092930188
:101C30006ECC80910101909102010E94EB0467CC6F
:101C40008BE2809398018093990110921701109272
:101C50001601109293015BCC8091160190911701AF
:101C60000E94EB0454CC8CE28093980180939901FC
:101C700010921501109214011092930148CC80919A
:101C80001401909115010E94EB0441CC8DE28093E8
:101C900098018093990110920A0210920902109201
:101CA000930135CC8091090290910A020E94EB04C5
:101CB0002ECC8EE2809398018093990110920802B5
:101CC000109207021092930122CC8091070290910A
:101CD00008020E94EB041BCC8FE28093980117CC82
:101CE00080E38093980180939901109219011092DA
:101CF0001801109293010BCC809118019091190159
:101D00000E94EB0404CC81E38093980180939901B5
:101D100010921B0110921A0110929301F8CB80913E
:101D20001A0190911B010E94EB04F1CB82E3809396
:101D30009801EDCB80911D010E94F604E8CB83E36E
:101D400080939801E4CB809182018F5F0E94F6041A
:101D5000DECB80EF90E00E949F06D9CB10929201DB
:101D6000109291018FE180939801D1CB8EE1809305
:101D7000980188E280939901CACB60910501709126
:101D8000060190E080E04AE00E943A0685E491E096
:101D90000E942D06BCCB8EE18093980185E2809352
:101DA0009901B5CB0E94A30589E280939801AFCB3E
:101DB00082E28093980110928B01A9CB80E00E946F
:101DC0002505A5CB609187017091880190E080E0A6
:101DD0004AE00E943A0685E491E00E942D0697CBE6
:101DE0008EE18093980186E28093990190CB87E2FF
:101DF000809398018CCB81E10E94A5049093E60129
:101E00008093E5010E949F0689E2809398017FCB31
:101E100081E2809398017BCB80E28093980180914E
:101E200022018F3F19F01093900171CB86E08093CF
:101E300090016DCB8FE180939801E4E0F0E0F093A6
:101E40009201E093910163CB82E0809398018093AB
:101E5000990124E030E0309392012093910157CB17
:101E60008FE180939801F0929201E09291014FCB23
:101E700082E08093980180939901F0929201E09220
:101E8000910145CB8FE18093980188E090E0909399
:101E90009201809391013BCB82E0809398018093E3
:101EA0009901A8E0B0E0B0939201A09391012FCBEB
:101EB0008EE18093980183E28093990128CB609111
:101EC0001E0170911F01809120019091210128EE47
:101ED00033E040E050E00E943B17CA01B9014AE0FC
:101EE0000E943A0685E491E00E942D0610CB84E220
:101EF000809398010CCB24E130E040E050E060EAB0
:101F00007FE089E00E943F0202CB24E130E040E024
:101F100050E068EE73E089E00E943F02F8CA24E1D5
:101F200030E040E050E06CE474E089E00E943F0261
:101F3000EECAE150E33308F05EC0F0E0EE55F04F3A
:101F40000C946C17D50FEB0F06102310391060108E
:101F50008610A310C710DA1009110D1123112D11CD
:101F600043116811ED10721178117C1186119C11CA
:101F7000C111CB118D13F011DE11E911E511E3123E
:101F8000E8120D13231339133C1352135F136C1310
:101F900079137D13FB0F50126312761289129C1273
:101FA000AF12B612C912DC12DF1240919301042E57
:101FB00002C0220F331F0A94E2F7809191019091A1
:101FC0009201280F391F3093920120939101485FAD
:101FD0004093930110C0682F8091910190919201DC
:101FE0000E94031780919101909192010196909324
:101FF000920180939101E8E9F1E02EE931E02E179A
:102000003F0709F48DC381818193F7CFE09191015E
:10201000F0919201F987E887CF010E94B706282F37
:1020200030E03093A00120939F01682F8EE392E06F
:102030000E942901288539852F5F3F4F30939201F7
:1020400020939101D8CF069769F40E9403069093DC
:10205000E6018093E5018091E5019091E6010E94FF
:10206000EB04C9CF285F3E4FD9018C910E94A50493
:10207000EECF81E02115310509F480E080932B0239
:10208000232B09F01AC360E085E00E9496010E94AC
:10209000BA0480901E0190901F01A0902001B09082
:1020A0002101DC01CB01880D991DAA1DBB1D809368
:1020B000270290932802A0932902B0932A029BCF73
:1020C00040919001842F90E0FC01EE5DFE4F2630A0
:1020D000310579F42FEF2083209128012F5F209381
:1020E0002801442351F0835F9E4F29E0FC012083A7
:1020F00004C02115310529F410824F5F40939001EF
:102100007ACF285F3E4FD9012C91E5CF40919301C2
:10211000042E02C0220F331F0A94E2F780911E01A1
:1021200090911F01A0912001B0912101820F931F76
:10213000A11DB11D80931E0190931F01A09320014A
:10214000B093210144CF0697C1F4D0928F01C09281
:102150008E0180918E0190918F0130918D01E2E28C
:10216000F1E020E041914817190609F4322F2F5F62
:102170002630C1F730938D013ECF285F3E4FD90105
:102180008C9190E090938F0180938E01E2CF4091EB
:102190009301042E02C0220F331F0A94E2F78091AC
:1021A000070190910801280F391F309308012093EF
:1021B00007010DCF40919301042E02C0220F331F5F
:1021C0000A94E2F78091050190910601280F391FCA
:1021D0003093060120930501FACE815080938C0143
:1021E00090E0880F991FFC01E354FE4F208131815C
:1021F00087559E4FFC016081718150E040E02F3F88
:10220000320719F420E030E0A90189E00E943F0282
:10221000F2CE815080938C01EECEE0918C01F0E003
:1022200040919301EE0FFF1FE755FE4F042E02C0B1
:10223000220F331F0A94E2F780819181280F391F02
:1022400031832083C4CEE0918C01F0E04091930172
:10225000EE0FFF1FE354FE4FE9CFE0918C01F0E059
:10226000EF50FE4F8083E1EFF1E080E02BEF31E0B3
:102270002E173F0719F480932502BDCE9191992323
:10228000A9F381E0F3CF0697C9F4D0928F01C092F1
:102290008E0180918E0190918F01E0918C01F0E090
:1022A000A2E2B1E020E0E951FE4F3D913817190656
:1022B00009F420832F5F2630C1F79DCE285F3E4F63
:1022C000D9018C9190E090938F0180938E01E1CFA2
:1022D000E0918C01F0E040919301EE0FFF1FEF526F
:1022E000FE4FA4CF815080938B010E94250583CEA1
:1022F000815080938B017FCEE0918B01F0E0409183
:102300009301EE0FFF1FE957FE4F90CFE0918B0135
:10231000F0E0E955FE4F80839091A701915081E054
:10232000943008F080E09091A8019150943008F426
:1023300081E0809326025FCE0697C9F4D0928F0188
:10234000C0928E0180918E0190918F01E0918B015E
:10235000F0E0A2E2B1E020E0EB55FE4F3D913817EE
:10236000190609F420832F5F2630C1F744CE285F79
:102370003E4FF901808190E090938F0180938E0110
:10238000E1CFE0918B01F0E040919301EE0FFF1F50
:10239000EF55FE4F4BCF40919301042E02C0220F08
:1023A000331F0A94E2F78091850190918601280FEE
:1023B000391F309386012093850109CE2E5F3E4F51
:1023C000D9018C910E94F60416CE8150809384012D
:1023D00012CEE0918401F0E0ED5FFE4F80830BCEE2
:1023E00080958F83809383018F3F29F461E087E09C
:1023F0000E94960100CEBF81B11102C060E0F7CF0C
:1024000061E087E00E940E02EAE7F0E08491833009
:1024100041F140F48130C9F08230E9F02F8127FD8D
:10242000E5CFECCF873051F1883089F18430B1F7B6
:1024300080918000806280938000BF81AB2FB0E0EC
:10244000B0938B00A0938A00D6CD84B5806884BDFC
:10245000FF81F7BDD0CD84B5806284BD2F8128BDBA
:10246000CACD809180008068809380009F81892FF1
:1024700090E09093890080938800BDCD8091B0005A
:1024800080688093B000EF81E093B300B4CD809179
:10249000B00080628093B000FF81F093B400ABCDB8
:1024A00040919301042E02C0220F331F0A94E2F7D9
:1024B0008091010190910201280F391F3093020190
:1024C0002093010184CD40919301042E02C0220F7C
:1024D000331F0A94E2F78091160190911701280F9B
:1024E000391F309317012093160171CD409193014C
:1024F000042E02C0220F331F0A94E2F780911401C8
:1025000090911501280F391F309315012093140164
:102510005ECD40919301042E02C0220F331F0A9416
:10252000E2F78091090290910A02280F391F309337
:102530000A02209309024BCD40919301042E02C060
:10254000220F331F0A94E2F780910702909108024C
:10255000280F391F309308022093070238CD81E0FD
:10256000232B09F480E080931C0145CD4091930119
:10257000042E02C0220F331F0A94E2F78091180143
:1025800090911901280F391F3093190120931801D8
:102590001ECD40919301042E02C0220F331F0A94D6
:1025A000E2F780911A0190911B01280F391F309397
:1025B0001B0120931A010BCD80931D011CCD81506E
:1025C0008093820118CD809380019093810113CD77
:1025D000A0909101B0909201C5010E94B706A82F6A
:1025E000B0E0B987A887B0938101A0938001C501AD
:1025F00001960E94B706E885F985FE2FEE27F09335
:102600008101E0938001E80FF11DCF01F093E60115
:10261000E093E5010E949F06EECCE0919001E63048
:1026200059F40E9403069093E6018093E50180919E
:10263000E5019091E601EECFF0E0E85FFE4F80818A
:102640000E94A504F0CF205331093093A0012093BC
:102650009F012130310509F0CECC8EE491E00E943B
:102660002D0685E491E00E942D068FEF80932201D4
:10267000C2CC80918B0139CE30908001212C3092D8
:10268000810120928001220D331DA8EEB3E00E944B
:102690005D1760931E0170931F018093200190933A
:1026A0002101A9CC81E02033310509F480E0809339
:1026B0002B022033310509F4E6CC61E0E5CCF09142
:1026C0008001FC831B828B819C81280F391F3093F2
:1026D0000601209305018FCC909180019E831D827D
:1026E000AD81BE812A0F3B1F309388012093870163
:1026F00082CC019709F07ACE81CEB0918001BA8365
:102700001982E981FA81F0938101E09380012E0F13
:102710003F1F30938601209385010E9451056BCCA9
:10272000F0923902E09238020C94870A0E94DF048A
:1027300066507F4F8F4F9F4F609394017093950128
:1027400080939601909397010C94940A0E94A5049B
:102750000C94E00A80912B02882309F471C06091E7
:102760003A0270913B0280913C0290913D02809030
:10277000270290902802A0902902B0902A02861683
:102780009706A806B90608F05BC04AE00E943A0620
:1027900069E08EE392E00E942901109239021092C2
:1027A000380280913802909139022091280128172F
:1027B000190651F14CF1880F991FFC01E45DFD4FA2
:1027C00060817181072E000C880B990B97FF18C050
:1027D0000E947E06809138029091390299878887FD
:1027E000FC01E25FFE4F60818EE392E00E942901CE
:1027F000A885B9851196B0933902A0933802D1CF3C
:102800004AE00E943A06E6CF809127029091280282
:10281000A0912902B0912A0240911E0150911F01FE
:102820006091200170912101840F951FA61FB71F91
:102830008093270290932802A0932902B0932A0242
:1028400080912602882309F482C0109239021092E6
:102850003802E0913802F0913902F987E887E230D6
:10286000F1050CF074C0E955FE4F40814423D9F0C6
:10287000E885F985EB55FE4F808190E0880F991F20
:10288000FC01E45DFD4F208131813093E60120930E
:10289000E50185509E4FDC018D919C91423069F19C
:1028A00050F44130D9F0E885F9853196F09339023A
:1028B000E0933802CECF433091F14430A1F7E88560
:1028C000F985EE0FFF1FEF55FE4F40815181241710
:1028D0003507C4F58417950734F31DC0E885F985DD
:1028E000EE0FFF1FEF55FE4F408151812417350732
:1028F000D4F284179507BCF60EC0E885F985EE0F73
:10290000FF1FEF55FE4F40815181421753075CF284
:102910004817590744F688850E942505C4CFE885E5
:10292000F985EE0FFF1FEF55FE4F408151812417AF
:102930003507FCF6841795070CF4B5CF88850E94FF
:102940000D05B1CF841795070CF0ADCFF7CF80916F
:102950002502882309F4A9C0109239021092380286
:102960002091380230913902398728872A30310581
:102970000CF09BC0F901EF50FE4F40814423D9F089
:10298000F901E951FE4F808190E0880F991FFC0109
:10299000E45DFD4F208131813093E6012093E50114
:1029A00085509E4FDC018D919C91423009F445C0C9
:1029B00050F4413019F1E885F9853196F0933902E8
:1029C000E0933802CDCF433009F449C0443099F741
:1029D00048855985440F551FFA01EF52FE4F60811B
:1029E0007181261737070CF05BC0861797071CF319
:1029F00047555E4FDA016D917C9146C0A885B98537
:102A0000AA0FBB1FFD01EF52FE4F60817181261797
:102A100037078CF28617970774F6FD01E354FE4FD3
:102A20002081318150E040E0FD01E755FE4F60819B
:102A3000718189E00E943F02BECFA885B985AA0FA7
:102A4000BB1FFD01EF52FE4F60817181621773075A
:102A50000CF4B1CF681779070CF0ADCFDECF488505
:102A60005985440F551FFA01EF52FE4F6081718165
:102A7000261737076CF0861797070CF09CCF475541
:102A80005E4FFA016081718120E030E0A901D1CF71
:102A9000861797070CF48FCF89E00E94E2018BCF55
:102AA000861797070CF087CFF7CF0E94DF044B0102
:102AB0005C0180923A0290923B02A0923C02B0925A
:102AC0003D028091210290912202A0912302B091B7
:102AD00024020097A105B10589F088169906AA0677
:102AE000BB0660F061E088E00E949601109221022E
:102AF00010922202109223021092240280911D0251
:102B000090911E02A0911F02B09120020097A10592
:102B1000B10589F088169906AA06BB0660F060E048
:102B200084E00E94960110921D0210921E021092E3
:102B30001F02109220021092390210923802209146
:102B40003802309139023987288722303105FCF468
:102B5000F901EE0FFF1FEE0FFF1FEB5EFD4F8081AF
:102B60009181A281B3810097A105B10541F088163A
:102B70009906AA06BB0618F088850E940D0588856F
:102B8000998501969093390280933802D8CF80902E
:102B9000110290901202A0901302B09014028114BE
:102BA0009104A104B104E9F10E94DF0440900D02F8
:102BB00050900E0260900F02709010024616570659
:102BC0006806790608F0AFC080911D01833009F4D2
:102BD00082C0D8F5813009F452C0823009F468C04F
:102BE00080911C01882369F020911A0130911B010A
:102BF00050E040E060911801709119018FE00E944F
:102C00003F028091160190911701480E591E611CD8
:102C1000711C40920D0250920E0260920F0270924F
:102C200010028091280190E0ACE2B2E0EBEFF1E01D
:102C300030E020E0281739070CF0BBC04D915D91C2
:102C4000419351932F5F3F4FF5CF843009F458C023
:102C5000853031F680910B0290910C02209109028F
:102C600030910A028217930708F4BACF2091070225
:102C7000309108022817390708F4B2CF3EC080917E
:102C80000B0290910C022091090230910A028217E6
:102C9000930708F4A5CF2091070230910802281766
:102CA000390708F49DCF61E080E10E94960198CF3A
:102CB00080910B0290910C022091090230910A023E
:102CC0008217930780F3209107023091080228179A
:102CD000390748F385CF80910B0290910C02209127
:102CE000090230910A028217930738F020910702F7
:102CF0003091080228173907B0F661E083E1D5CF9B
:102D000080910B0290910C022091090230910A02ED
:102D10008217930740F2209107023091080228178A
:102D2000390708F2EACF0E94DF0486169706A80644
:102D3000B90608F076CF60E080E10E9496018091AC
:102D40001D01833020F060E083E10E9496018091B4
:102D50000B0290910C02019690930C0280930B024F
:102D600020911401309115012817390788F4109229
:102D70000D0210920E0210920F0210921002109289
:102D8000110210921202109213021092140249CFF3
:102D90008091160190911701880E991EA11CB11CFB
:102DA0008092110290921202A0921302B092140229
:102DB00038CF9093390280933802A0E0B0E0AB2B7B
:102DC00011F40C94A7090E94F300882311F40C94C9
:102DD000A6090E9400000C94A6098091E30290913C
:102DE000E4020E940E188091E10287FD03C060E0BA
:102DF0000C940E020895F999FECF92BD81BDF89A08
:102E0000992780B50895262FF999FECF1FBA92BD54
:102E100081BD20BD0FB6F894FA9AF99A0FBE0196BB
:102E20000895052E97FB1EF400940E94281757FD65
:102E300007D00E943B1707FC03D04EF40C942817D0
:102E400050954095309521953F4F4F4F5F4F0895D6
:102E500090958095709561957F4F8F4F9F4F089506
:102E60000E945D17A59F900DB49F900DA49F800DAB
:102E7000911D11240895A1E21A2EAA1BBB1BFD016E
:102E80000DC0AA1FBB1FEE1FFF1FA217B307E40749
:102E9000F50720F0A21BB30BE40BF50B661F771FA1
:102EA000881F991F1A9469F7609570958095909581
:102EB0009B01AC01BD01CF010895A29FB001B39F5A
:102EC000C001A39F700D811D1124911DB29F700D33
:102ED000811D1124911D0895EE0FFF1F0590F4919F
:102EE000E02D09940F931F93CF93DF9382309105C8
:102EF00010F482E090E0E091F202F091F30230E011
:102F000020E0B0E0A0E0309799F42115310509F4F4
:102F10004AC0281B390B24303105D8F58A819B81A2
:102F20006115710589F1FB0193838283FE0111C054
:102F3000408151810281138148175907E0F04817F9
:102F4000590799F4109761F012960C931297139603
:102F50001C933296CF01DF91CF911F910F9108956D
:102F60000093F2021093F302F4CF2115310551F0D2
:102F70004217530738F0A901DB019A01BD01DF01B7
:102F8000F801C1CFEF01F9CF9093F3028093F202E1
:102F9000CDCFFE01E20FF31F8193919322503109AF
:102FA00039832883D7CF2091F0023091F102232B6F
:102FB00041F420912B0130912C013093F1022093A8
:102FC000F0022091290130912A012115310541F4A7
:102FD0002DB73EB740912D0150912E01241B350B8A
:102FE000E091F002F091F102E217F307A0F42E1B3A
:102FF0003F0B2817390778F0AC014E5F5F4F24175D
:10300000350748F04E0F5F1F5093F1024093F002D6
:10301000819391939FCFF0E0E0E09CCFCF93DF933B
:103020000097E9F0FC01329713821282A091F2021C
:10303000B091F302ED0130E020E01097A1F420817F
:103040003181820F931F2091F0023091F1022817F5
:10305000390709F061C0F093F102E093F002DF91CB
:10306000CF910895EA01CE17DF07E8F54A815B8129
:103070009E0141155105B1F7E901FB83EA834991AE
:103080005991C40FD51FEC17FD0761F48081918120
:103090000296840F951FE901998388838281938129
:1030A0009B838A83F0E0E0E012968D919C911397C8
:1030B0000097B9F52D913C911197CD010296820FA1
:1030C000931F2091F0023091F1022817390739F649
:1030D000309751F51092F3021092F202B093F10280
:1030E000A093F002BCCFD383C28340815181840F6F
:1030F000951FC817D90761F44E5F5F4F888199818A
:10310000480F591F518340838A819B819383828317
:103110002115310509F0B0CFF093F302E093F202EC
:103120009ECFFD01DC01C0CF13821282D7CFDC011C
:1031300001C06D9341505040E0F7089510E0CEE596
:10314000D0E004C0FE010E946C172196CF35D10754
:10315000C9F7F894FFCFFF01000001050005000E3C
:10316000100F1213090A0A0A0A0A32001400A00FEB
:1031700005000101102700000E13000000000200EE
:1031800000F40280000313101300000000290189DD
:1031900000B6007601E700C500D9000D0A005245CF
:1031A000414459004B6E6F622044657465637465D9
:0231B0006400B9
:107E0000112484B714BE81FFF0D085E080938100F7
:107E100082E08093C00088E18093C10086E0809377
:107E2000C20080E18093C4008EE0C9D0259A86E02C
:107E300020E33CEF91E0309385002093840096BBD3
:107E4000B09BFECF1D9AA8958150A9F7CC24DD24C4
:107E500088248394B5E0AB2EA1E19A2EF3E0BF2EE7
:107E6000A2D0813461F49FD0082FAFD0023811F036
:107E7000013811F484E001C083E08DD089C08234E0
:107E800011F484E103C0853419F485E0A6D080C0E4
:107E9000853579F488D0E82EFF2485D0082F10E0AE
:107EA000102F00270E291F29000F111F8ED06801E7
:107EB0006FC0863521F484E090D080E0DECF843638
:107EC00009F040C070D06FD0082F6DD080E0C81688
:107ED00080E7D80618F4F601B7BEE895C0E0D1E017
:107EE00062D089930C17E1F7F0E0CF16F0E7DF06D8
:107EF00018F0F601B7BEE89568D007B600FCFDCFD4
:107F0000A601A0E0B1E02C9130E011968C91119780
:107F100090E0982F8827822B932B1296FA010C0160
:107F200087BEE89511244E5F5F4FF1E0A038BF0790
:107F300051F7F601A7BEE89507B600FCFDCF97BE46
:107F4000E89526C08437B1F42ED02DD0F82E2BD052
:107F50003CD0F601EF2C8F010F5F1F4F84911BD097
:107F6000EA94F801C1F70894C11CD11CFA94CF0C13
:107F7000D11C0EC0853739F428D08EE10CD085E9AC
:107F80000AD08FE07ACF813511F488E018D01DD067
:107F900080E101D065CF982F8091C00085FFFCCF94
:107FA0009093C60008958091C00087FFFCCF809118
:107FB000C00084FD01C0A8958091C6000895E0E648
:107FC000F0E098E1908380830895EDDF803219F02E
:107FD00088E0F5DFFFCF84E1DECF1F93182FE3DFCA
:107FE0001150E9F7F2DF1F91089580E0E8DFEE27F6
:047FF000FF270994CA
:027FFE00040479
:00000001FF
